:020000040800F2
:10000000A0060020C11E0008C91E0008CB1E000863
:10001000CD1E0008CF1E0008D11E00080000000001
:10002000000000000000000000000000D31E0008D7
:10003000D51E000800000000D71E0008D91E0008C9
:10004000DB1E0008DB1E0008DB1E0008DB1E0008AC
:10005000DB1E0008DB1E0008DB1E0008DB1E00089C
:10006000DB1E0008DB1E0008DB1E0008DB1E00088C
:10007000DB1E0008DB1E0008DB1E0008DB1E00087C
:10008000DB1E0008DB1E0008DB1E0008DB1E00086C
:10009000DB1E0008DB1E0008DB1E0008DB1E00085C
:1000A000DB1E0008DB1E0008DB1E0008DB1E00084C
:1000B000DB1E00089F020008DB1E0008DB1E000894
:1000C000DB1E0008DB1E0008DB1E0008DB1E00082C
:1000D000DB1E0008DB1E0008DB1E0008DB1E00081C
:1000E000DB1E0008DB1E0008DB1E0008DB1E00080C
:1000F000DB1E0008DB1E0008DB1E0008DB1E0008FC
:10010000DB1E0008DB1E0008DB1E0008DB1E0008EB
:10011000DB1E0008DB1E0008DB1E0008DB1E0008DB
:10012000DB1E0008DB1E0008DB1E0008DB1E0008CB
:10013000DB1E0008DB1E0008DB1E0008DB1E0008BB
:10014000DB1E0008DB1E0008DB1E0008DB1E0008AB
:10015000DB1E0008DB1E0008DB1E0008DB1E00089B
:10016000DB1E0008DB1E0008DB1E0008DB1E00088B
:10017000DB1E0008DB1E0008E9040008DB1E000887
:10018000DB1E0008DB1E000800F002F800F03CF85F
:100190000AA090E8000C82448344AAF10107DA45E2
:1001A00001D100F031F8AFF2090EBAE80F0013F0F8
:1001B000010F18BFFB1A43F001031847DC58000079
:1001C000FC580000103A24BF78C878C1FAD852070A
:1001D00024BF30C830C144BF04680C6070470000C1
:1001E0000023002400250026103A28BF78C1FBD840
:1001F000520728BF30C148BF0B6070471FB503F0DE
:10020000BDFF1FBD10B510BD03F003FF1146FFF782
:10021000F5FF00F0D3F803F021FF03B4FFF7F2FF7E
:1002200003BC03F029FF00007FB50D460446012101
:10023000022002F09BF800210194ADF80050714CAF
:10024000ADF80210ADF808106946204602F0C4F976
:1002500001221146204602F048FD0121204602F00D
:1002600033FA1D208DF80C0001208DF80D000321BC
:100270008DF80E108DF80F0003A802F0AEFF7FBDC1
:1002800070B5614D04464021284602F066FF002803
:10029000F9D0E1B22846BDE8704002F0CDBE70B59D
:1002A000584D0121284602F034FD012809D1802152
:1002B000564801F0F5FE564C2078FFF7E1FF00208C
:1002C00020702846BDE87040012102F02EBD1CB50B
:1002D0000121042002F02CF88020009001208DF8EC
:1002E000040000208DF8060003218DF805108DF81C
:1002F00007006946454801F063FE1CBD7CB54FF41C
:1003000080600224434D00908DF804408DF8054034
:100310006946284601F054FEA00200908DF8044082
:100320008DF805406946284601F04AFE7CBD10B5AF
:100330000121022001F0FCFF0121880402F016F8DF
:10034000344C07220A21204601F0AEFE2046072247
:10035000BDE810400B2101F0A7BE1FB54FF4E130FE
:1003600000900020ADF80400ADF80600ADF80800DC
:10037000ADF80C000C20ADF80A006946224802F0E6
:10038000C4FD1FBD10B5204C2021204602F0E5FE23
:100390000028F9D02046BDE8104002F051BE401EB2
:1003A000FDD2704710B50021EF2340F23F120846FE
:1003B00000F01FFCBDE8104000F09DBBFFF787FF79
:1003C0000121084601F0B4FF00F04FFB01F0E4F911
:1003D00001F0BBFA00F029FD0F494FF47840088086
:1003E000FFF7A5FFFFF78AFFFFF7B7FF01210648D8
:1003F00002F0FCFD42F2CF0142F20F70FFF714FF52
:10040000FEE70000000400400048004000080240F1
:1004100002000020000402400600002030B5BC4D60
:1004200004468FB0284602F0C7FF4FF000700090DE
:10043000B8480190B8484FF416412044029000207B
:10044000CDE90301A914CDE906014900089149113C
:100450000991059049020A9104210B910321CDE9EC
:100460000C100E906946284603F02EF80FB030BDF0
:1004700000B5012185B0084601F064FF0020ADF809
:1004800004008021ADF806104021ADF80810ADF849
:100490000000ADF80200ADF80A00ADF80C00012133
:1004A000880501F045FF0020FFF7B8FF4FF44070CA
:1004B00002F08EFE4E208DF8100001208DF8110004
:1004C00002218DF812108DF8130004A802F085FEA9
:1004D0000121082002F043FF684602F0DCFE012003
:1004E00002F024FF05B000BD2DE9F04701240820EB
:1004F00002F054FFDFF82492854E894F894D4FF06A
:10050000000850B3082002F051FF6878E8B10120DC
:1005100002F017FF0121304603F00FF80021EF230E
:1005200040F23F12084600F064FB00F0E4FA39465E
:10053000304603F051F80028F9D04946304603F020
:1005400060F8EC70A878401CA87028780F2805D2B5
:100550000E2800D16C70401C287001E085F80080E6
:10056000102002F01BFF70B3102002F01FFF68780C
:1005700048B30121304602F0E0FFA888F02823D2DA
:10058000EF281DD10121304602F0D7FF3946304611
:1005900003F022F80028F9D04946304603F031F83C
:1005A0000021304602F0C9FF0021012002F0D7FEF1
:1005B0000021102002F0D3FE002002F0C2FEEC70F9
:1005C000A888401CA88001E0A5F80480012002F062
:1005D000E5FE00282ED06878E0B1012002F0B1FEDF
:1005E0000121304602F0A9FF3946304602F0F4FFFF
:1005F0000028F9D04946304603F003F80021304680
:1006000002F09BFF0021012002F0A9FE002002F071
:1006100098FEEC7028780F2805D20E2800D16C7057
:10062000401C287001E085F80080BDE8F0470120FB
:1006300002F0BCBEBDE8F08770B500F08EF800F0A7
:1006400015F98021122000F05DF900244FF47A762C
:100650007510304600F06CF8641CA4B2AC42F8D3BC
:1006600000210B2000F04EF90B2000F08AF97328CE
:100670000CD12D4D002405EB4400417815F81400F1
:1006800000F040F9641CA4B2A82CF4D3274C2046F7
:1006900000F04EF8FFF7ECFE2046BDE8704000F099
:1006A00047B82DE9F041054600EB420086B201EB68
:1006B000430084B20F46B4F5447F02D9A4F54474D4
:1006C000A4B2032000F05DF906F00302294600F011
:1006D000F00062F39F010143032000F013F9C5F31A
:1006E0008701192000F00EF9C6F387011A2000F0E7
:1006F00009F9322000F045F9C7F3C701172000F0CF
:1007000001F9C4F3C701BDE8F041182000F0FAB8C0
:100710002864024028000550FFFF0360000C001011
:1007200000080010000000208641000840420F0031
:1007300001B54FF0E0210098C0EBC00000EB400095
:10074000486100238B61012008610869C20701D05C
:10075000C003FAD58B610B6108BD2DE9FC41012175
:10076000072001F0E5FDCC4D0D220421284601F0C3
:100770009BFC0D220621284601F096FC0D220A2141
:10078000284601F091FCC54E0D220621304601F0AD
:100790008BFC0D220721304601F086FC0D2208213A
:1007A000304601F081FC0D220921304601F07CFC2D
:1007B000BB4F0D220621384601F076FC0D220821A0
:1007C000384601F071FC0D220921384601F06CFC1D
:1007D0000D220B21384601F067FC4FF434600224EF
:1007E00000908DF804408DF805406946384601F0C8
:1007F000E7FB4FF4707000908DF804408DF80540D1
:100800006946304601F0DCFB4FF48A6000908DF8B9
:1008100004408DF805406946284601F0D1FBBDE84B
:10082000FC817CB50121084601F082FD01208DF894
:10083000040002208DF8050000208DF80600964D7A
:100840004FF400748DF8070000946946284601F0C3
:10085000B7FB2146284601F01AFC4FF4FA70FFF767
:1008600067FF2146284601F010FC7CBD7CB50121C4
:10087000062001F05DFD02258DF8055001244FF49E
:1008800000508DF8074000908DF8044000268DF848
:1008900006606946824801F093FB8DF805500820F8
:1008A0008DF8074000908DF804408DF80660694689
:1008B0007A4801F085FB7CBD1CB54FF400500090D8
:1008C00002208DF8050001208DF8070000208DF82A
:1008D00004006946724801F073FB1CBD1CB54FF45F
:1008E0000050009002208DF8050001208DF80700CF
:1008F0008DF8040000208DF806006946684801F074
:100900005FFB1CBD2DE9F0410E46074603F0DEFB00
:100910000A20FFF70DFF03F0B7FB422003F0F8FBBE
:100920005F4C103420688004FCD40520FFF700FFE2
:10093000FFF7D4FF594D0821284601F0A8FB38469F
:1009400003F0E6FB20688004FCD40520FFF7F0FEEE
:10095000FFF7C4FF0821284601F099FB304603F059
:10096000D7FB20688004FCD40520FFF7E1FE0821B6
:10097000284601F08CFBFFF7B1FFBDE8F04103F022
:10098000A5BB2DE9F041044603F0A0FB0A20FFF7C8
:10099000CFFE03F079FB422003F0BAFB404E103645
:1009A00030688004FCD40520FFF7C2FEFFF796FFF5
:1009B0003A4F0821384601F06AFB204603F0A8FBB5
:1009C00030688004FCD40520FFF7B2FEFFF786FFF5
:1009D0000821384601F05BFB03F078FB0520FFF7A8
:1009E000A7FE03F051FB432003F092FB3068800424
:1009F000FCD40520FFF79CFE0821384601F047FB98
:100A00000024FFF759FF00256006040E0520FFF7BC
:100A10008FFE0821384601F038FB3068800401D58C
:100A2000641CE4B20520FFF783FE0821384601F07C
:100A30002EFB6D1CEDB2082DE6D3FFF74FFF4FF4F0
:100A40000051174801F021FB0520FFF771FE082136
:100A5000384601F01AFB0520FFF76AFEFFF73EFF5C
:100A600003F034FB2046BDE8F0811CB54FF48070E4
:100A7000009002208DF805008DF8040000208DF80C
:100A800006006946044801F09BFA4FF0A0614FF45C
:100A9000C00001F0B0FB1CBD000002400004024099
:100AA0000008024001B5BDF80000ADF80000BDF837
:100AB0000000FE49088008BD01B5BDF80000ADF892
:100AC0000000BDF80000F949891C088008BDF748FE
:100AD00008B5801C0088ADF80000BDF8000008BD16
:100AE000F24A1080901C0180704700B5FFF7DAFFD2
:100AF0005DF804EBEBE7EE48EC49008908807047AD
:100B0000EA49891C08807047C0F34511C20AC00237
:100B100000EB4110104480B27047401EC0B2FCD2BE
:100B2000704730B5E24D04460A46A888A0F5134147
:100B3000413912D16889FFF7B5FF200AFFF7BCFFE2
:100B4000E0B2FFF7B9FFA889FFF7ACFF100AFFF783
:100B5000B3FFBDE83040D0B2AEE730BD70B5D44E83
:100B6000002425463288824202D972888A4201D8FE
:100B7000002070BDFFF7D5FFB08849F241329042A6
:100B800002D12E20FFF78EFFFFF7A1FF0221491EA1
:100B9000C9B2FCD2FFF79BFF0146B08890420BD14F
:100BA0000220401EC0B2FCD2FFF791FF0546C8B23A
:100BB0004FF6FF7303EA0024B0889042D9D1C80AE7
:100BC000C002A10A40EA411040EAD52070BDB848F1
:100BD0008088A0F51341413901D1292062E770478F
:100BE000B3488088A0F51341413901D1282059E745
:100BF0007047F0B5AE4F06460D46B8881C46A0F5C6
:100C0000134141391ED17889FFF74CFF300AFFF7B5
:100C100053FFF0B2FFF750FF100AFFF74DFFD0B2BD
:100C2000FFF74AFFB889FFF73DFF280AFFF744FFA7
:100C3000E8B2FFF741FF200AFFF73EFFE0B2BDE850
:100C4000F04039E7F0BD10B5994C0021A288A2F51B
:100C50001343413B48D1082812D2DFE800F01104C9
:100C600006080A0C0E1080210AE0402108E0C0218D
:100C700006E0202104E0602102E0A02100E0E02164
:100C8000362041F00801FFF72BFF21886088814260
:100C900001D9208061806089FFF704FF0020FFF701
:100CA0000BFF0020FFF708FF2088401EC0F30F2035
:100CB000FFF702FF2078401EC0B2FFF7FDFEA089BB
:100CC000FFF7F0FE0020FFF7F7FE0020FFF7F4FE2D
:100CD0006088401EC0F30F20FFF7EEFEA078BDE84D
:100CE0001040401EC0B2E7E610BD00B5FFF719FF87
:100CF000FFF701FF6F486D49891C0088088000BD1F
:100D000070B56B4C06460D46A088A0F513414139DD
:100D100011D16089FFF7C6FE300AFFF7CDFEF0B2B1
:100D2000FFF7CAFEA089FFF7BDFE280AFFF7C4FE41
:100D3000E8B2FFF7C1FE5D4920890880881C028067
:100D400070BDF0B45A4A2C242A252B269188F0270E
:100D500049F2413C4FF4A07358B1012090711380C7
:100D60005780614502D1148155819681F0BC0520E0
:100D700069E700209071178053806145F6D1148196
:100D80005581A1F5D0409681043803D0A1F5A64045
:100D90001038EBD113804FF4F0705080E6E7F0B5D7
:100DA00005461044401E86B2C818414F401E82B20C
:100DB000B8880C46A0F5134141391ED17889FFF758
:100DC00071FE280AFFF778FEE8B2FFF775FE300AD9
:100DD000FFF772FEF0B2FFF76FFEB889FFF762FE11
:100DE000200AFFF769FEE0B2FFF766FE100AFFF780
:100DF00063FEBDE8F040D0B25EE6F0BD70B52C49B0
:100E00000646002408884D88214645432046FFF7C2
:100E100088FEFFF770FE2548A5F51645801C01E009
:100E20000680641CAC42FBD370BD2DE9F043A3B037
:100E3000002401217A20029401F07AFA0121084667
:100E400001F08AFA01258DF804504FF400408DF826
:100E50000640022600908DF805608DF8075069461F
:100E6000154801F0ADF88DF804604CF233708DF840
:100E700006400327DFF8449000908DF805708DF848
:100E800007506946484601F09BF88DF804604FF61C
:100E900080708DF80640DFF8288000908DF805708E
:100EA0008DF80750694640460CE00000FEFF0160E7
:100EB000300000200600002000040240000C024028
:100EC0000010024001F07CF88DF8046080208DF85D
:100ED000064000908DF805708DF807506946484629
:100EE00001F06EF88DF80460E8028DF8064000907D
:100EF0008DF805708DF807506946484601F060F896
:100F00000C220021484601F0CFF80C22012148466E
:100F100001F0CAF80C220421484601F0C5F80C2261
:100F20000521484601F0C0F80C220821484601F08E
:100F3000BBF80C220921484601F0B6F80C220A2120
:100F4000484601F0B1F80C220E21484601F0ACF8F9
:100F50000C220F21484601F0A7F80C220721404639
:100F600001F0A2F80C220821404601F09DF80C2265
:100F70000921404601F098F80C220A21404601F070
:100F800093F80C220B21404601F08EF80C221146FA
:100F9000404601F089F80C220D21404601F084F80A
:100FA0000C220E21404601F07FF80C220F21404612
:100FB00001F07AF80C220B21484601F075F80C225A
:100FC0000721484601F070F80F20CDE914043C20B9
:100FD000CDE916040920CDE91A4018940820CDE97E
:100FE0001C4019941E941F94209421940594102061
:100FF0000694CDE9074009940B940A9400020C94DE
:10100000CDE90D408000CDE90F4014A8CDE9114095
:101010001BA8139005A802F072FB0121002002F02A
:1010200003FC322000F0AEFB01210020FFF758FD49
:10103000322000F0A7FB0020FFF757FDF94A4FF6DA
:10104000FF74FF28908004D3A04202D0B0F5134F64
:1010500012D1D320FFF726FDFFF739FD9080FFF76F
:1010600036FD9080FFF733FD04EA00209080FFF703
:101070002EFD91880843908081B249F2413081422F
:1010800019D14FF02040D0F81C1121F00F01C0F809
:101090001C11D0F81C1121F47061C0F81C11D0F89B
:1010A0001C1141F00301C0F81C11D0F81C1141F4CF
:1010B0000071C0F81C117DD14FF0CF00FFF7F2FC9A
:1010C0000020FFF7F9FCC120FFF7F6FC3020FFF706
:1010D000F3FCED20FFF7E6FC6420FFF7EDFC0320B6
:1010E000FFF7EAFC1220FFF7E7FC8120FFF7E4FCA2
:1010F000E820FFF7D7FC8520FFF7DEFC1020FFF784
:10110000DBFC7A20FFF7D8FCCB20FFF7CBFC3920A3
:10111000FFF7D2FC2C20FFF7CFFC0020FFF7CCFC20
:101120003420FFF7C9FC0220FFF7C6FCF720FFF7C9
:10113000B9FC2020FFF7C0FCEA20FFF7B3FC002039
:10114000FFF7BAFC0020FFF7B7FCC020FFF7AAFCAE
:101150001B20FFF7B1FCC120FFF7A4FC0120FFF723
:10116000ABFCC520FFF79EFC3020FFF7A5FC30202C
:10117000FFF7A2FCC720FFF795FCB720FFF79CFC08
:101180003620FFF78FFC4820FFF796FC3A20FFF748
:1011900089FC5520FFF790FCB120FFF783FC00206D
:1011A000FFF78AFC1A20FFF787FCB620FFF77AFCCE
:1011B0000A2000E097E0FFF77FFCA220FFF77CFC0D
:1011C000F220FFF76FFC0020FFF776FC2620FFF7E8
:1011D00069FC0120FFF770FCE020FFF763FC0F20A3
:1011E000FFF76AFC2A20FFF767FC2820FFF764FC62
:1011F0000820FFF761FC0E20FFF75EFC0820FFF7D8
:101200005BFC5420FFF758FCA920FFF755FC432056
:10121000FFF752FC0A20FFF74FFC0F20FFF74CFCB2
:101220000020FFF749FC0020FFF746FC0020FFF7F5
:1012300043FC0020FFF740FCE120FFF733FC0020D7
:10124000FFF73AFC1520FFF737FC1720FFF734FCB7
:101250000720FFF731FC1120FFF72EFC0620FFF7D7
:101260002BFC2B20FFF728FC5620FFF725FC3C2009
:10127000FFF722FC0520FFF71FFC1020FFF71CFCE6
:101280000F20FFF719FC3F20FFF716FC3F20FFF768
:1012900013FC0F20FFF710FC2B20FFF703FC0020AE
:1012A000FFF70AFC0020FFF707FC0120FFF704FC12
:1012B0003F20FFF701FC2A20FFF7F4FB0020FFF797
:1012C000FBFB0020FFF7F8FB0020FFF7F5FBEF200A
:1012D000FFF7F2FB1120FFF7E5FB782000F052FA50
:1012E0002920FFF7DFFB0120FFF72BFD4E48C0F858
:1012F000BC522046FFF782FD23B0BDE8F0832DE904
:10130000F0418046A2EB0800401C1F460C4685B207
:10131000DFF818C1069E0FE021464046FFF701FCAA
:10132000FFF7E9FB002003E0ACF80060401C80B24E
:10133000A842F9D3641CA4B2BC42EDD9BDE8F08147
:101340002DE9F0438146A2EB0900401C0E4685B210
:10135000981B401C87B20024DFF8D080DDF81CC049
:1013600014E0301981B24846FFF7DBFBFFF7C3FBFF
:101370000020414606E004FB05023CF812200A80EA
:10138000401C80B2A842F6D3641CA4B2BC42E8D38D
:10139000B3E72DE9FC4F0026A2EB000C81465F1A53
:1013A000701E35468846BCF1000F02DD4FF001018A
:1013B00002E003D14FF00001009102E0CCF1000CFB
:1013C0000090002F02DD4FF0010002E003D14FF04A
:1013D0000000834602E08346C7F10007BC4501DDFB
:1013E000644600E03C46601C4FF0000A019014E0A7
:1013F0001FFA88F11FFA89F0FFF777FC66443D4435
:10140000A64202DD0099361B8944A54201DD2D1B51
:10141000D8440AF101001FFA80FA01998A45E7DDF4
:10142000BDE8FC8F300000200080404200000260D8
:10143000F0B51C4615460E4607460B46FFF7A9FFBA
:101440003A46234631461046FFF7A3FF23462A4675
:1014500019463846FFF79DFF2A4623463146BDE828
:10146000F040104695E72DE9F84F844600241546D4
:1014700003200F46A0EB45064AE0781B81B20CEB37
:10148000040900901FFA89F0FFF72FFCA7EB040B6B
:101490000CEB05081FFA8BF11FFA88F0FFF725FC0B
:1014A00007EB040A1FFA8AF11FFA88F0FFF71DFC08
:1014B00007EB05081FFA88F11FFA89F0FFF715FC02
:1014C000ACEB04091FFA88F11FFA89F0FFF70DFC55
:1014D000ACEB05081FFA8AF11FFA88F0FFF705FC4C
:1014E000009881B21FFA89F0FFF7FFFB1FFA8BF11A
:1014F0001FFA88F0FFF7F9FB641C002E03DA06EBF5
:101500008406B61D04E0601B06EB80066D1E0A36DD
:10151000AC42B2DDBDE8F88F2DE9F84F81461F4699
:101520000C468A46580700D0012000EBD700790806
:1015300010FB01F0203AC0B202F0FF080026DFF8ED
:101540001CB2009041E00C2F10D0102F12D0182F99
:10155000E0D1834908EBC80001EB80004FF0000C9C
:10156000855D28060AD5BBF800200BE008EB480093
:101570007C49F1E77C4901EB0810EFE70A9828B9AC
:10158000BBF8022021464846FFF7BAFB6806050E65
:101590007648641CA4B24088A042BBD9A4EB0A00E0
:1015A000B84209D109F101001FFA80F96F48544689
:1015B00001884945AED906E00CF1010C0CF0FF0C96
:1015C000BCF1080FCDD3761CF6B200988642BAD390
:1015D000A0E70346012000E05843491EC9B2FBD2F0
:1015E00070472DE9FF4F81B00027DDF838B01D4668
:1015F000924680463C46B9464FEA5B0627E0281BE8
:10160000401EC1B20A20FFF7E4FFBAFBF0F00A2146
:10161000B0FBF1F201FB120027B9691E8C4201DA1E
:1016200048B101273030C2B206FB048080B25B466D
:10163000CDF8009006E006FB048080B25B462022D5
:10164000CDF800900299FFF767FF641CE4B2AC424A
:10165000D5D305B0BDE8F08F2DE9FF4F81B08046AE
:10166000DDF83CA00E984FF000091F4693464C460B
:101670000AF0010546082BE0381B401EC1B20A20C3
:10168000FFF7A7FFBBFBF0F00A21B0FBF1F201FB73
:101690001200B9F1000F05D1791E8C4202DA48B16F
:1016A0004FF001093030C2B206FB048080B20095D1
:1016B0000E9B08E05FEA0A6006FB04800E9B80B286
:1016C000009508D530220299FFF726FF641CE4B28A
:1016D000BC42D1D3BDE72022F5E72DE9F84F0446FF
:1016E00000F0FF0810190D46DDE90A761FFA80FAAE
:1016F00058191FFA80F94FF0000B11E0544502D33E
:10170000E819444685B24D450FD23B46294620464E
:10171000CDF800B0FFF700FF04EB570084B2761C51
:101720003278A2F120005E28E8D9F3E670B50024F3
:101730000D46064621462046FFF7F3F9FFF7DBF991
:101740000B4B4FF416421E80641C9442FBD34FF4A3
:1017500096301D80521C8242FBD370BD06000020D3
:101760003A4D0008D64200084A47000830000020E1
:10177000000002600021401EFDD2491C89B20A29E6
:10178000F9D370470021401E80B2FCD2491C89B2B7
:101790006429F8D37047000030B5012187B088056F
:1017A00000F0E4FD0121022000F0C2FDFF4D042203
:1017B0000A21284600F078FC04220B21284600F07C
:1017C00073FC4FF44060049002208DF81400002454
:1017D0008DF8154001208DF816008DF8174004A9EA
:1017E000284600F0EDFBF24D284602F0B3F9012146
:1017F000284602F030FAFE20ADF808002815ADF8B2
:101800000A000001ADF80C00ADF804404BF6FF7182
:10181000E848ADF8061000906946284602F0B6F98F
:1018200007B030BD2DE9F041E14C0F4606460121DD
:10183000204602F01AFAE04D2046294602F0DEFA70
:101840000028F9D000224221204602F022FADB4D86
:101850002046294602F0D2FA0028F9D03146204627
:1018600002F084FA2546D54CA41C2146284602F0F5
:10187000C5FA0028F9D03946284602F077FA214601
:10188000284602F0BBFA0028F9D00121284602F0D0
:10189000F6F90020BDE8F0812DE9F041C44D07467E
:1018A0000121284602F0E1F9C34C2846214602F006
:1018B000A5FA0028F9D000224321284602F0E9F9D0
:1018C000BE4E2846314602F099FA0028F9D0394632
:1018D000284602F04BFAB94EB61C3146284602F0B3
:1018E0008DFA0028F9D0B2481430018841F48061A3
:1018F00001800121284602F0B8F92146284602F06D
:101900007DFA0028F9D001224321284602F0C1F9CE
:10191000A94C641C2146284602F070FA0028F9D030
:101920000021284602F0BDF9A34C3F342146284649
:1019300002F064FA0028F9D00121284602F09FF94C
:101940002846BDE8F04102F013BA10B580211220FC
:10195000FFF768FF9A4C2046FEF7EAFE0B20FFF7E0
:101960009BFF73287ED10C213A20FFF75BFFD0212B
:101970004020FFF757FF14211220FFF753FF80216B
:101980003220FFF74FFF17210846FFF74BFF0521D5
:101990001820FFF747FF02211920FFF743FF7B21A3
:1019A0001A20FFF73FFF0A210320FFF73BFF00212A
:1019B0000C20FFF737FF00213E20FFF733FF002107
:1019C0007020FFF72FFF81217120FFF72BFF1121DE
:1019D0007220FFF727FF00217320FFF723FF02216A
:1019E000A220FFF71FFF81211120FFF71BFF2021FD
:1019F0007A20FFF717FF1C217B20FFF713FF282118
:101A00007C20FFF70FFF3C217D20FFF70BFF5521C6
:101A10007E20FFF707FF68217F20FFF703FF762175
:101A20008020FFF7FFFE80218120FFF7FBFE882149
:101A30008220FFF7F7FE8F218320FFF7F3FE962128
:101A40008420FFF7EFFEA3218520FFF7EBFEAF21F7
:101A50008620FFF7E7FEC4218720FFF7E3FED721AA
:101A6000882000E02BE2FFF7DDFEE8218920FFF768
:101A7000D9FEE0211320FFF7D5FE00210846FFF72D
:101A8000D1FE00211020FFF7CDFE00210D20FFF731
:101A9000C9FE28211420FFF7C5FE0521A520FFF768
:101AA000C1FE0721AB20FFF7BDFE75212420FFF703
:101AB000B9FE63212520FFF7B5FEA5212620FFF7FB
:101AC000B1FE78219F20FFF7ADFE6821A020FFF72F
:101AD000A9FE0321A120FFF7A5FEDF21A620FFF725
:101AE000A1FEDF21A720FFF79DFEF021A820FFF730
:101AF00099FE9021A920FFF795FE9421AA20FFF7D7
:101B000091FEE5211320FFF78DFE61210E20FFF7E6
:101B100089FE4B210F20FFF785FE02211620FFF7DB
:101B200081FE07211E20FFF77DFE02212120FFF705
:101B300079FE91212220FFF775FE07212920FFF76A
:101B400071FE0B213320FFF76DFE0B213520FFF7CF
:101B500069FE1D213720FFF765FE71213820FFF750
:101B600061FE2A213920FFF75DFE78213C20FFF736
:101B700059FE40214D20FFF755FE20214E20FFF752
:101B800051FE55216920FFF74DFE0A216B20FFF71A
:101B900049FE19217420FFF745FE4F218D20FFF7E4
:101BA00041FE00218E20FFF73DFE0BE000040240C5
:101BB00000580040A08601000100030082000700D9
:101BC00040420F0000218F20FFF72CFE00219020C3
:101BD000FFF728FE00219120FFF724FE002192202C
:101BE000FFF720FE00219620FFF71CFE80219A209F
:101BF000FFF718FE8421B020FFF714FE0C21B1205E
:101C0000FFF710FE0E21B220FFF70CFE8221B32059
:101C1000FFF708FE0A21B820FFF704FE1421432035
:101C2000FFF700FEF0214420FFF7FCFD34214520A2
:101C3000FFF7F8FD58214620FFF7F4FD2821472043
:101C4000FFF7F0FD3A214820FFF7ECFD88215920ED
:101C5000FFF7E8FD88215A20FFF7E4FD44215B20CF
:101C6000FFF7E0FD67215C20FFF7DCFD49215D20E7
:101C7000FFF7D8FD0E215E20FFF7D4FD042164207C
:101C8000FFF7D0FD20216520FFF7CCFD0521662060
:101C9000FFF7C8FD04219420FFF7C4FD082195201B
:101CA000FFF7C0FD0A216C20FFF7BCFD55216D2018
:101CB000FFF7B8FD11216E20FFF7B4FD9F216F20C3
:101CC000FFF7B0FD40216A20FFF7ACFD4021012065
:101CD000FFF7A8FD40210220FFF7A4FDE721132014
:101CE000FFF7A0FD08211520FFF79CFD80214F2064
:101CF000FFF798FD80215020FFF794FD002151202F
:101D0000FFF790FD22215220FFF78CFD5E2153202A
:101D1000FFF788FD80215420FFF784FD0A2155201C
:101D2000FFF780FD4F215620FFF77CFD9E215820B4
:101D3000FFF778FD08214120FFF774FD05213F20C2
:101D4000FFF770FD05217520FFF76CFDE12176207E
:101D5000FFF768FD0F214C20FFF764FD0A21772073
:101D6000FFF760FDC2213D20FFF75CFD09214B20FC
:101D7000FFF758FD6021C920FFF754FD38214120AD
:101D8000FFF750FD11213420FFF74CFD02213B20CD
:101D9000FFF748FD8921A420FFF744FD002196208C
:101DA000FFF740FD30219720FFF73CFD20219820D0
:101DB000FFF738FD30219920FFF734FD84219A2068
:101DC000FFF730FD29219B20FFF72CFD03219C20EC
:101DD000FFF728FD4C219D20FFF724FD3F219E2089
:101DE000FFF720FD04217820FFF71CFD0121792059
:101DF000FFF718FDF021C820FFF714FD0F2179200F
:101E0000FFF710FD0021C820FFF70CFD10217920FD
:101E1000FFF708FD7E21C820FFF704FD0A21792085
:101E2000FFF700FD8021C820FFF7FCFC0B21792083
:101E3000FFF7F8FC0121C820FFF7F4FC0C21792002
:101E4000FFF7F0FC0F21C820FFF7ECFC0D217920F3
:101E5000FFF7E8FC2021C820FFF7E4FC09217920E6
:101E6000FFF7E0FC8021C820FFF7DCFC022179208D
:101E7000FFF7D8FCC021C820FFF7D4FC032179204C
:101E8000FFF7D0FC4021C820FFF7CCFC05217920CA
:101E9000FFF7C8FC3021C820FFF7C4FC26217920B9
:101EA000FFF7C0FC02210920FFF7BCFC42213B20C8
:101EB000FFF7B8FC2046BDE81040FEF739BC10BD66
:101EC0000948804709480047FEE7FEE7FEE7FEE7CE
:101ED000FEE7FEE7FEE7FEE7FEE7FEE7044805490A
:101EE000054A064B70470000333F0008890100088F
:101EF000A0000020A0060020A0020020A0020020D8
:101F0000714910B5884206D10121084600F042FA15
:101F1000002101204FE06D49884206D101210220B5
:101F200000F038FA0021022045E06949884206D1D4
:101F30000121042000F02EFA002104203BE0654935
:101F4000884206D10121082000F024FA002108204F
:101F500031E06149884206D10121102000F01AFACF
:101F60000021102027E05D49884206D10121202070
:101F700000F010FA002120201DE05949884206D1C6
:101F80000121402000F006FA0021402013E05549CD
:101F9000884206D10121802000F0FCF90021802038
:101FA00009E0514988420AD184150121204600F0F8
:101FB000F1F900212046BDE8104000F0EBB910BD5A
:101FC000F0B5002201274FF0030C0B6807FA02F569
:101FD0002B40AB422CD1066853000CFA03F4A64305
:101FE00006600E79D0F800E09E4046EA0E060660D4
:101FF0000E79012E01D0022E12D18668A64386608A
:102000004E79D0F808E09E4046EA0E0686604668A3
:10201000AE43466045688E799640B6B2354345601A
:10202000C568A543C560CC799C40C3681C43C460A7
:10203000521C102AC9D3F0BD4FF6FF710160002178
:10204000017141718171C171704708B541F48032ED
:102050000092C261C1610099C161C169C06900900B
:1020600008BD0246002012690A4200D001207047D4
:10207000006980B270470246002052690A4200D0CF
:1020800001207047406980B27047018370474183E7
:1020900070470AB1018370474183704741617047BF
:1020A00042694A40426170474B07DB0E9A40C908BB
:1020B00010B500EB8100016A0F249C40A14301622E
:1020C000016A1143016210BD000002400004024099
:1020D00000080240000C02400010024000140240C0
:1020E00000180240001C024000200240EA4801683B
:1020F00041F001010160E84A0021083211600268E4
:10210000E64B1A400260031DE54A1A60026822F499
:1021100080220260E0480C3001607047DE490022F6
:10212000891C0A7008707047024600205109012975
:102130000CD002290CD0D8497431096802F01F0272
:10214000012393400B4200D001207047D249F4E7AD
:10215000D1497031F1E718B500204FF4A064009028
:102160003120FFF7E1FF0099491C0091A14201D005
:102170000028F5D03120FFF7D7FF002800D001203C
:1021800018BDC54A116821F0F80141EAC00010608D
:102190007047C44908607047BF49002270310A7017
:1021A0000A70012802D0042801D105200870704768
:1021B000BD490860704741EA82115A0810B5BB4B0F
:1021C000029C03EB02421143014341EA0460B2491D
:1021D000091D086010BDB34908667047800140EAD8
:1021E0000170AD49843108607047AE498866704718
:1021F000AC49C8647047A84B08331A68084322F0FA
:10220000EC62104318607047A34B08331A68084308
:1022100022F078421043186070479F4A08321168D4
:1022200021F003010143116070479B4808300068AA
:1022300000F00C007047984A0832116821F0F00154
:10224000014311607047944A0832116821F4E0514B
:10225000014311607047904A0832116821F46041CF
:1022600041EAC0001060704770B58B4B08331968A5
:102270008F4C11F00C0104D06610042903D00829FA
:1022800003D004601BE0066019E0834A121D116848
:10229000C1F38055116801F03F0115B1B6FBF1F1B2
:1022A00001E0B4FBF1F114681268C4F388146143CF
:1022B000C2F30142521C5200B1FBF2F101601968F5
:1022C0000F2202EA11117B4A545C0168E14041602F
:1022D0001C68072505EA9424145D21FA04F484603F
:1022E0001B6805EA5333D25CD140C16070BDC0F3B6
:1022F0000121032908D1684B083319686E4A21F47B
:10230000F81102400A431A60634970310A68C0F349
:102310000B0002430A607047634944390860704704
:1023200061494039086070475E49C1F85C017047F7
:10233000594A30320029116801D0014300E081433D
:1023400011607047544A34320029116801D00143AA
:1023500000E08143116070474F4A3832002911680C
:1023600001D0014300E08143116070474A4A403286
:102370000029116801D0014300E0814311607047DA
:10238000454A44320029116801D0014300E08143ED
:1023900011607047404A10320029116801D0014392
:1023A00000E08143116070473B4A143200291168F4
:1023B00001D0014300E0814311607047364A183272
:1023C0000029116801D0014300E08143116070478A
:1023D000314A20320029116801D0014300E08143D5
:1023E000116070472C4A24320029116801D0014342
:1023F00000E0814311607047274A5032002911687C
:1024000001D0014300E0814311607047224A5432F9
:102410000029116801D0014300E081431160704739
:102420001D4A58320029116801D0014300E0814360
:1024300011607047184A60320029116801D00143C9
:1024400000E0814311607047134A6432002911682B
:1024500001D0014300E08143116070470E4A0D3204
:102460000029117801D0014300E0814311707047C9
:1024700009487430016841F080710160704701467D
:10248000054A00200C3212680A4200D00120704731
:1024900001490E310870704700380240FFFFF6FE18
:1024A0001030002400004742800E47420000FFFF2A
:1024B0000024F4000A000020FFFCFF0FFE4910B5C5
:1024C000884206D101210846FFF78CFF0021012038
:1024D0005BE0B0F1804F09D0F84988420DD101216D
:1024E0000220FFF775FF0021022070E0012108465D
:1024F000FFF76EFF0021012069E0F149884206D113
:1025000001210420FFF764FF002104205FE0ED4972
:10251000884206D101210820FFF75AFF0021082038
:1025200055E0E949884206D101211020FFF750FF0C
:10253000002110204BE0E549884206D101212020EE
:10254000FFF746FF0021202041E0E149884206D103
:1025500001210220FFF746FF0021022015E0DD499E
:10256000884202D101210C040AE0DB49884202D1F1
:1025700001214C0404E0D94988420AD101218C048C
:102580002046FFF72FFF00212046BDE81040FFF74F
:1025900029BFD349884206D101214020FFF718FF07
:1025A0000021402013E0CF49884206D1012180203C
:1025B000FFF70EFF0021802009E0CB4988420AD1B5
:1025C000841501212046FFF703FF00212046BDE8C6
:1025D0001040FFF7FDBE10BD30B50288B64CBC4DB3
:1025E000A0420DD0A8420BD0B0F1804F08D0B34B21
:1025F000984205D0B24B984202D0B24B984203D1D8
:1026000022F070034A881A43AF4B984206D0AF4B72
:10261000984203D022F440730A891A4302804A6820
:10262000C2620A880285A04201D0A84201D1897AFB
:1026300001860121818230BD4FF0FF3141600021D0
:1026400001800181418081727047018582827047DB
:10265000028822F070020A4302807047416270478C
:10266000C1627047406A7047008D70470029018839
:1026700002D041F0020101E021F002010180704727
:102680000029018802D041F0040101E021F0040199
:10269000018070470029018802D041F0800101E0EB
:1026A00021F0800101807047028822F00802028038
:1026B00002880A4302807047028822F44072028036
:1026C00002880A43028070470029018802D041F045
:1026D000010101E021F001010180704730B5028C59
:1026E00022F001020284028C8388048B22F0020211
:1026F00024F073050C882C438D8915434A882A439E
:102700006D4DA84202D0724DA8420DD122F00805AD
:10271000CA8923F440732A4322F004058A882A4395
:102720000D8A1D434B8A2B43838004838968416350
:10273000028430BD70B5028C22F010020284028C3B
:102740008388048B0D8824F4E6464FF6FF7404EA70
:10275000052535438E8922F0200204EA0616164329
:102760004A8804EA02123243534EB04202D0584E15
:10277000B04215D122F08006CA8923F4406304EAEE
:102780000212324322F040068A8804EA02123243DF
:102790000E8A04EA86061E434B8A04EA8303334307
:1027A0008380058389688163028470BD70B5028C63
:1027B00022F480720284028C8388848B0D8824F03A
:1027C000730425438E894FF6FF7422F4007204EAE5
:1027D000062616434A8804EA02223243364EB042A5
:1027E00002D03B4EB04215D122F40066CA8923F4D0
:1027F000405304EA0222324322F480668A8804EAC3
:10280000022232430E8A04EA06161E434B8A04EA69
:1028100003133343838085838968C163028470BD59
:1028200070B5028C22F480520284058C8288838BDE
:102830000C8823F4E6464FF6FF7303EA042434437E
:1028400025F400568D8903EA053535434E8803EAA1
:1028500006362E43184DA84202D01D4DA84205D180
:1028600022F480450A8A03EA82122A438280848302
:1028700089680164068470BD0021018041808180E7
:1028800081608181C18101824182704730B501241C
:10289000058C00F118038C40A543058431B3082949
:1028A0002CD0091FC1F34E001844016848F6FF738D
:1028B0001940016001681AE0000001400004004076
:1028C00000080040000C00400010004000140040D0
:1028D0000004014000400140004401400048014024
:1028E00000180040001C00400020004006E04FF6A9
:1028F000FF7303EA02221143016030BD03EB510074
:1029000001684FF68F73194001600168F3E7416376
:10291000704781637047C163704701647047028BE1
:1029200022F070020A4302837047028B4FF6FF7356
:1029300022F4E04203EA0121114301837047828BB4
:1029400022F070020A4382837047828B4FF6FF7336
:1029500022F4E04203EA0121114381837047028B94
:1029600022F008020A4302837047028B4FF6FF737E
:1029700022F4006203EA0121114301837047828B34
:1029800022F008020A4382837047828B4FF6FF735E
:1029900022F4006203EA0121114381837047028B14
:1029A00022F004020A4302837047028B4FF6FF7342
:1029B00022F4806203EA0121114301837047828B74
:1029C00022F004020A4382837047828B4FF6FF7322
:1029D00022F4806203EA0121114381837047028B54
:1029E00022F080020A4302837047028B4FF6FF7386
:1029F000C2F30E0203EA0121114301837047828B67
:102A000022F080020A4382837047828B4FF6FF7365
:102A1000C2F30E0203EA0121114381837047028C45
:102A200022F002020A4302847047028C22F008025C
:102A30000A4302847047028C4FF6FF7322F0200293
:102A400003EA0111114301847047028C4FF6FF73B2
:102A500022F0800203EA0111114301847047028CC5
:102A60004FF6FF7322F4007203EA0121114301843F
:102A70007047028C4FF6FF7322F4006203EA0121D3
:102A8000114301847047028C4FF6FF7322F4005209
:102A900003EA013111430184704710B50123048C0E
:102AA0008B409C430484038C8A401343038410BDF1
:102AB00010B50423048C8B409C430484038C8A400F
:102AC0001343038410BD828B22F440628283828B85
:102AD0004FF6FF7303EA01210A4382837047828B1A
:102AE00022F00C028283828B0A4382837047028B1E
:102AF00022F440620283028B4FF6FF7303EA012146
:102B00000A4302837047F0B5048C24F01004048457
:102B1000078B068C4FF6FF7404EA011527F4734700
:102B200004EA0331394304EA02220A4326F0A001F1
:102B3000294341F0100102830184F0BD028B22F091
:102B40000C020283028B0A43028370472DE9F04195
:102B50000C460E884988A288238905460EB3042EA8
:102B600026D0082E2E8C4FF6FF7028D026F48056E3
:102B70002E84AF8B2E8C00EA022200EA013127F46A
:102B800073473A4300EA0330104326F420420A43D5
:102B900042F48051A8832984E1882846BDE8F041A9
:102BA00091E700F062F9E1882846BDE8F041C5E709
:102BB000FFF7A9FFE1882846BDE8F04197E726F432
:102BC00080762E84AF8B2E8C00EA012100EA031060
:102BD000104327F0F307384326F420620A4342F4F7
:102BE0008071A8832984E1882846BDE8F04176E712
:102BF00000210180418001228280C18001817047D3
:102C00002DE9F0410C46002649880746012501B907
:102C10000226A288012A00D10225208823890028C3
:102C2000384610D0FFF76FFFE1883846FFF75FFFA7
:102C300023892A463146384600F017F9E18838469C
:102C4000BDE8F0417AE700F010F9E1883846FFF777
:102C500075FF23892A4631463846FFF754FFE1883D
:102C60003846BDE8F04142E7406B7047806B7047E3
:102C7000C06B7047006C704710B50A884B88CC88D1
:102C80001A438B8823431A430B891A434B8989893A
:102C90001A430A43A0F8442010BD0021018041805E
:102CA0008180C1800181418181817047002930F894
:102CB000441F02D041F4004101E0C1F30E01018044
:102CC00070470029818802D041F0040101E021F021
:102CD0000401818070470029818802D041F0010100
:102CE00001E021F0010181807047002A828901D032
:102CF0000A4300E08A43828170478182704702461E
:102D00000020128A0A4200D001207047C943018284
:102D1000704702460020138A92890B4202EA0102A0
:102D200002D0002A00D001207047C94301827047B9
:102D30001143A0F848107047002A828901D00A4345
:102D400000E08A43828170470029818802D041F0E7
:102D5000080101E021F0080181807047018921F01C
:102D6000070101817047028922F070020A43028143
:102D7000704700B50346FFF7F6FF188940F00700DB
:102D8000188100BD70B516460D46602904464FF007
:102D9000010231460AD000F068F829462046FFF7C4
:102DA000E2FF208940F00700208170BDFFF7ABFEF5
:102DB000F3E730B504894FF6FF7505EA03231343A3
:102DC000E4B20B432343038130BD10B50446FFF743
:102DD000F0FF208940F07700208110BD10B5044637
:102DE000FFF7E7FF208940F48040208110BD8288F2
:102DF00022F07002828082880A43828070470289B2
:102E000022F00702028102890A4302817047028987
:102E100022F08002028102890A430281704770B564
:102E20000589048B068C25F007050D434FF6FC4100
:102E30000C4040F201110C434FF6FF7101EA0311FF
:102E400026F022061143314305810483018470BDBD
:102E50000029818802D041F0800101E021F0800149
:102E600081807047A0F85010704770B5048C24F032
:102E700001040484058B048C4FF6FF7606EA0313E5
:102E8000134325F0F3052B4324F00A020A4342F0D2
:102E900001010383018470BDC74910B5884206D182
:102EA00001211020FFF79EFA0021102028E0C349DD
:102EB000884202D101214C0410E0C149884202D16C
:102EC00001218C040AE0BF49884202D10121CC04CF
:102ED00004E0BD4988420AD101210C052046FFF7D4
:102EE00077FA2046BDE810400021FFF771BAB749D4
:102EF000884209D101212020FFF774FA0021202007
:102F0000BDE81040FFF76EBA10BD7FB50446008AD9
:102F10000D46C98820F4405001432182A08941F226
:102F20000C618843A9882A8911436A8902431143A5
:102F3000A181A08A20F44071A8890843A082684634
:102F4000FFF792F99C48844202D0A048844201D104
:102F5000039800E00298A189090400EBC00101EB8D
:102F60000010296801D5490000E08900B0FBF1F0AC
:102F70006422B0FBF2F109010B096FF018056B43F5
:102F800000EB8300A3891D044FF0320306D503EB49
:102F9000C000B0FBF2F000F0070005E003EB00100A
:102FA000B0FBF2F000F00F00084320817FBD4FF42A
:102FB0001651016000218180C18001810C22428173
:102FC0008181704710B5028A4C8822F470630A88A8
:102FD00022438C88C9880C4322431A43028210BDC5
:102FE0000021018041808180C18070470029818952
:102FF00002D041F4005101E021F400518181704779
:10300000028B02F47F420283028B0A4302837047E1
:103010000029818902D041F4004101E0C1F30E0191
:10302000818170470029818A02D041F4006101E06A
:1030300021F4006181827047C1F3080181807047EB
:103040008088C0F308007047028A22F00F020282D3
:10305000028A0A43028270470029818902D041F026
:10306000020101E021F0020181817047828922F48E
:103070000062828182890A4382817047028A22F03B
:1030800020020282028A0A43028270470029018AD2
:1030900002D041F4804101E021F480410182704777
:1030A000818941F00101818170470029818A02D024
:1030B00041F0080101E021F0080181827047028B94
:1030C000D2B20283028B42EA0121018370470029B8
:1030D000818A02D041F0200101E021F020018182AB
:1030E00070470029818A02D041F0100101E021F0EF
:1030F000100181827047828A22F004028282828AD1
:103100000A43828270470029818A02D041F002017D
:1031100001E021F0020181827047002A828A01D0F9
:103120000A4300E08A438282704710B5C1F342131C
:1031300001F01F040121A140012B07D0022B07D071
:103140001430002A026805D00A4304E00C30F8E786
:103150001030F6E78A43026010BD02460020128854
:103160000A4200D001207047C9430180704770B502
:1031700001F01F0501260024C1F3421306FA05F2EF
:10318000012B0FD0022B0FD0838A4FEA1121008828
:10319000134206FA01F600EA060001D000B101244C
:1031A000204670BD8389F0E7038AEEE70A0A012111
:1031B0009140C94301807047001001400044004025
:1031C00000480040004C0040005000400014014006
:1031D0002849084328490860704730B50F23C27852
:1031E00001780125FAB1244A126801F1E02102F4C4
:1031F000E062C2F5E062C2F30722C2F10404D340E8
:103200004278A24084781C401443220181F80024B3
:10321000007800F01F018D404009800000F1E0209F
:10322000C0F8005130BD01F01F0085404809800002
:1032300000F1E020C0F8805130BD104A1140014338
:103240000D48001F016070470B4A121D00291168CC
:1032500001D0014300E08143116070474FF0E0214D
:103260000428086903D020F004000861704740F08A
:103270000400FAE70000FA050CED00E080FFFF1FF4
:103280004C4800210160C1601F2242618161C1611F
:1032900001624162704730B546490A6844F2010351
:1032A0009A430A600A6840F6F2739A430388448896
:1032B000C588234384882C432343048923434489BA
:1032C00080892343034313430B6030BD00210180F9
:1032D00041808180C1800181418181817047016885
:1032E0004FEA314233490A6240684FEA304048624F
:1032F000704730490028086802D040F0040001E01F
:1033000020F0040008607047C178006861F31F6016
:1033100028498861704727490028086802D040F092
:10332000080001E020F008000860704721490028EB
:10333000086802D040F4804001E020F4804008603A
:1033400070471C490028086802D040F0010001E0E5
:1033500020F00100086070471648806A7047154ADF
:103360000029D16801D0014302E0C04380B201408E
:10337000D160704703460020190B0E4A012906D080
:10338000022906D01169194200D0012070479168C6
:10339000F9E75168F7E70749486170470549024670
:1033A00000200969114200D001207047014948619D
:1033B00070470000000005502DE9F043016821F03E
:1033C000010101600021016041608160C160016113
:1033D00021214161B849B84A3D251039904202D1B6
:1033E0008D60BDE8F083B44A4FF4746618329042A1
:1033F00001D18E60F5E7B04A4FF474173032904235
:1034000001D18F60EDE7AC4A4FF0746C48329042C6
:1034100002D1C1F808C0E4E7A74BA84A603398423C
:1034200001D1CA60DDE7A44CA54B7834A04201D19C
:10343000CB60D6E7DFF88082A24C08F190084045C7
:1034400001D1CC60CDE7DFF870824FF03D5908F133
:10345000A808404502D1C1F80C90C2E79A49DFF8AC
:1034600068820839404501D10D60BAE7964D18359C
:10347000A84201D10E60B4E7934D3035A84201D186
:103480000F60AEE7904D4835A84202D1C1F800C0A8
:10349000A7E78D4D8C496035091FA84201D10A600C
:1034A0009FE7894A7832904201D10B6099E7864ABA
:1034B0009032904201D10C6093E7834AA832904247
:1034C0008FD1C1F800908CE730B503687F4ACC6893
:1034D00013400A682243D1E905452C432243CC69B5
:1034E00022430C6A22434C6A22438C6A22434C6B6F
:1034F00022438C6B22431A430260426922F0070385
:10350000D1E90B2422431A4342610A6942604A68A6
:1035100082608968C16030BD0021016041608160C6
:10352000C160016141618161C16101624162816289
:10353000C16201634163816370470029016802D061
:1035400041F0010101E021F0010101607047002913
:10355000016802D041F4004101E021F40041016022
:1035600070470029016802D041F0200101E021F0FC
:1035700020010160704741607047406880B2704729
:10358000002A026802D042F4002201E022F4002264
:103590000260016170470029016802D041F4802176
:1035A00001E021F48021016070470AB10161704798
:1035B000C1607047014600200968090300D5012059
:1035C0007047014600200968C90700D001207047F4
:1035D000406900F03800704702463B4B00209A4299
:1035E00002D2354A103A01E0374A103A8B0001D531
:1035F000526800E01268364B1A400A4200D001209F
:103600007047314A904202D22B48103801E02E48D0
:1036100010382F4A8B0001EA020101D5C1607047C2
:10362000816070470B0607D5436912B143F08003F0
:1036300001E023F080034361802908D0002A02685A
:1036400001F01E0101D00A4300E08A430260704786
:1036500030B51D4A0024904202D2174A103A01E0C8
:10366000194A103A1B4B194205D01E2303EAD125F3
:1036700003682B4002E0406900F08003880001D518
:10368000506800E01068124A1040084201D003B1AF
:103690000124204630BD0C4A904202D20648103820
:1036A00001E0094810380A4A8B0001EA020101D5FD
:1036B000C160704781607047106002403D0000208B
:1036C000400F002000003D20106402403F801CF0AD
:1036D0007D0F7D0F3C0F3C0F8100A1F1C04140B137
:1036E00043F2D20008606FF070404860C1F80401F6
:1036F00070474FF0204243F2DB001060F3E710B553
:10370000D0E901121143D0E903231A43114342695E
:10371000114382691143C2691143026A1143426A2B
:103720001143826A1143C26A1143026B114302685A
:103730009200A2F1C04211608168082907D1016896
:103740008900A1F1C0410A6842F040020A60416B61
:10375000D1E9002342EA03128B688C891B0243EAF9
:1037600004431A430B8A42EA03520B7D896942EAF9
:1037700003620A4301688900A1F1C0414A60C16A3D
:10378000B1F5804F08D000686FF070418000A0F163
:10379000C040C0F8041110BD816BD1E9002342EA9A
:1037A00003128B680C8A1B0243EA04531A430B7DF5
:1037B000896942EA036200680A438000A0F1C040C0
:1037C000C0F8042110BD10B500210222C0E900128A
:1037D0008160C160016141618161D202C161C0E962
:1037E00008125200C0E90A210163436B0F221A60DC
:1037F000436B5A60446BFF23A360446BE260446BED
:103800002261446B6261446BA161846B2260846BB2
:103810006260846BA360836BDA60836B1A61836B75
:103820005A61806B816110BD8000A0F1C040002909
:10383000016802D041F0010101E0C54A1140016078
:10384000704710B5182340244FF020414FF0FC3250
:10385000102805D041F8803F4C608A60CA6010BDD6
:103860000B664C668A66CA6610BD30B5D0E9011297
:103870001143D0E903231A431143426941EA42212B
:10388000826941EA423141F00804C169D1E900236B
:1038900042EA03220B89097B1B0443EA01610A43C4
:1038A000016AD1E9003543EA05230D89097B2D041E
:1038B00045EA01610B4301684FF02040102904D014
:1038C00040F8804F8260C36030BD04668266C36684
:1038D00030BD10210160002141608160C160016143
:1038E00041618161C269FC211160C2695160C26994
:1038F0009160C269D160026A1160026A5160026A15
:103900009160006AC16070474FF0204251B11028A9
:1039100004D052F8800F40F004000AE0106E40F02E
:1039200004000AE08A49C91E102804D052F8800F0A
:10393000084010607047106E0840106670474FF0E6
:10394000204251B1102804D052F8800F40F04000BE
:103950000AE0106E40F040000AE07D493F3910282F
:1039600004D052F8800F084010607047106E084075
:10397000106670474FF02041102802D0D1F8940013
:103980007047486F70474FF02040182140F8A01F43
:10399000002141604FF0FC318160C16001617047DE
:1039A00010B5D0E9001241EA42218268102343EAAF
:1039B000423211434FF0204242F8A01FC168D1E9C2
:1039C000003443EA04230C89097B240444EA01619E
:1039D0000B4393600169D1E9003443EA04230C8965
:1039E000097B240444EA01610B43D3604069D0E9B8
:1039F000001341EA03210389007B1B0443EA0060B2
:103A00000143116110BD0021016041608160C26805
:103A1000FC211160C2685160C2689160C268D160C7
:103A20000269116002695160026991600269D160A6
:103A30004269116042695160426991604069C160A8
:103A400070474FF02041002851F8A00F02D040F0FD
:103A5000040002E03E4AD21E10400860704710B5D4
:103A60004FF480744FF0204372B1102804D0A0426C
:103A700005D153F8840F04E0586E08430DE053F865
:103A8000A40F0843186010BD102804D0A04206D12E
:103A900053F8840F05E0586E8843586610BD53F8FC
:103AA000A40F8843EEE7034600204FF02042102B7E
:103AB00008D0B3F5807F07D0D2F8A4200A4200D006
:103AC00001207047526EF9E7D2F88420F6E74FF0F4
:103AD0002042102807D0B0F5807F08D052F8A40FFC
:103AE000884310607047506E88435066704752F8A4
:103AF000840FF5E7034600204FF02042102B0CD036
:103B0000B3F5807F0BD0D2F8A4200A4202EAD1019B
:103B100002D0002900D001207047526EF5E7D2F89C
:103B20008420F2E74FF02042102808D0B0F5807FC3
:103B30000AD052F8A40F20EAD10010607047506EEE
:103B400020EAD1005066704752F8840FF3E7000076
:103B5000FEFF0F00C94910B5884202D101214C0572
:103B60000AE0C749884202D101218C0504E0C54919
:103B700088420AD10121CC052046FEF729FC2046C7
:103B8000BDE810400021FEF723BC10BD7FB5044600
:103B900080880D4620F03F066846FEF765FBBA496F
:103BA0000298B0FBF1F189B20E43A680228822F080
:103BB00001022280B54B2A689A421BD85200B0FB02
:103BC000F2F080B2042800D20420491C2184A08392
:103BD000208840F00100208020884FF6F531084011
:103BE000A9886A89114301432180A889298908434A
:103BF00020817FBDEB88A3F53F46FF3E0BD002EB53
:103C0000C20303EB0212B0FBF2F080B240F480403A
:103C1000020506D007E002EB4202B0FBF2F080B2F0
:103C2000F6E740F001004FF4967251434FF47A7278
:103C3000B1FBF2F140F40040C7E741F28831016086
:103C4000002181804BF6FF72C280018141814FF4D7
:103C50008041818170470029018802D041F0010133
:103C600001E021F00101018070470029018802D0A4
:103C700041F4807101E021F48071018070470029D6
:103C8000018802D041F4007101E021F4007101804B
:103C9000704712B141F0010101E001F0FE01018223
:103CA00070470029018802D041F4806101E021F4CD
:103CB000806101807047828901F0FE0122F0FE02DE
:103CC0001143818170470029818902D041F00101AF
:103CD00001E021F00101818170470029018802D0B3
:103CE00041F0400101E021F04001018070470029CE
:103CF000018802D041F4004101E0C1F30E010180CE
:103D000070470029018803D021F0800101807047AD
:103D100041F08001FAE7B1F5804F818B02D021F4A8
:103D2000804101E041F4804181837047B1F5006F2B
:103D3000018803D021F400610180704741F40061E3
:103D4000FAE7B1F5005F018803D021F4005101804A
:103D5000704741F40051FAE70029018802D041F090
:103D6000100101E021F010010180704701827047CD
:103D7000008AC0B270470029018802D041F4805106
:103D800001E021F4805101807047B1F5006F018896
:103D900003D021F400610180704741F40061FAE72B
:103DA0000029018802D041F0200101E021F020012A
:103DB00001807047008B000A70470029818802D07B
:103DC00041F4006101E021F4006181807047002925
:103DD000818802D041F4805101E021F4805181803A
:103DE000704708B508440090008808BD002A828802
:103DF00001D00A4300E08A438280704703460020D6
:103E00009A8A1B8B42EA034222F07F42914300D1FF
:103E100001207047818A008B41EA004121F07F40F8
:103E200070470CB50246002000920A0F21F07F4136
:103E3000019202D0009A143202E0009A090C183262
:103E4000009212680A4200D001200CBDC943818251
:103E5000704710B5034600209A884FF4E06404EAE6
:103E600011449B8A224021F07F410B4202D0002A5C
:103E700000D0012010BDC94381827047005400402A
:103E800000580040005C004040420F00A086010046
:103E90000CB50022544900920192086840F4803029
:103EA00008604FF4A063086800F4003001900098A7
:103EB000401C0090019810B900989842F3D108680E
:103EC000800334D50120019047484030026842F019
:103ED000805202604548026842F4804202604248D3
:103EE000083002680260026842F400420260026820
:103EF00042F4A0520260031F3D4A1A600A6842F071
:103F000080720A600A689201FCD53A4940F2056263
:103F10000A60016821F003010160016841F00201BB
:103F200001600168C1F381010229FAD10CBD01923F
:103F30000CBD314810B5016841F4700101602A4898
:103F4000016841F001010160274A00210832116037
:103F500002682A4B1A400260031D294A1A6002684F
:103F600022F48022026020480C300160FFF790FFAD
:103F700021494FF000608039086010BD70B51A4DBE
:103F8000083528681F4B204910F00C0004D05E1043
:103F9000042803D0082803D00B601BE00E6019E052
:103FA000114A121D1068C0F38054106800F03F00E1
:103FB00014B1B6FBF0F001E0B3FBF0F01368126847
:103FC000C3F388135843C2F30142521C5200B0FBA2
:103FD000F2F0086028680C4AC0F30310121D105C50
:103FE0000A68C2400A6070BD00380240007000409C
:103FF00008544007003C024088ED00E0FFFFF6FE59
:10400000103000240024F4001C000020704770478A
:104010007047754600F02CF8AE46050069465346D9
:1040200020F00700854618B020B5FDF757FFBDE822
:1040300020404FF000064FF000074FF000084FF00F
:10404000000B21F00701AC46ACE8C009ACE8C009A0
:10405000ACE8C009ACE8C0098D46704710B504460D
:10406000AFF300802046BDE81040FCF7D6B8000052
:10407000004870474000002001491820ABBEFEE711
:10408000260002007047000070B50E4D4FF400543A
:1040900021462846FDF7F9FF0B4E08213046FDF773
:1040A000F4FF0520FCF744FB21462846FDF7EFFF0F
:1040B0000520FCF73DFB3046BDE870400821FDF7C8
:1040C000E6BF0000000802400004024070B5052071
:1040D000FCF72EFB08210C48FDF7D7FF0520FCF765
:1040E00027FB0A4D4FF4005421462846FDF7CFFF29
:1040F0000520FCF71DFB21462846FDF7C6FFBDE85D
:1041000070400320FCF714BB00040240000802408A
:104110002DE9F041DFF85C80174E054600244FF48E
:10412000005728063946404602D5FDF7AEFF01E0AC
:10413000FDF7ADFF0520FCF7FBFA08213046FDF73F
:10414000A4FF0520FCF7F4FA08213046FDF79FFF95
:104150006806641C050EE4B2082CE2D3FCF7ACFB45
:104160000320FCF7E5FA3046BDE8F0410821FDF7F1
:104170008CBF000000080240000402404FF0407075
:10418000E1EE100A70473A0C40D012143280171733
:10419000180519021A7B030A0C003E007000710119
:1041A00072117300A20211817A207B1C7C287D3C55
:1041B0007E557F68807681808288838F849685A3F0
:1041C00086AF87C488D789E813E0000010000D008F
:1041D0001428A505AB072475256326A59F78A0683C
:1041E000A103A6DFA7DFA8F0A990AA9413E50E61AA
:1041F0000F4B16021E07210222912907330B350BA4
:10420000371D3871392A3C784D404E2069556B0A6C
:1042100074198D4F8E008F009000910092009600CF
:104220009A80B084B10CB20EB382B80A431444F041
:10423000453446584728483A59885A885B445C6751
:104240005D495E0E640465206605940495086C0A59
:104250006D556E116F9F6A400140024013E71508CB
:104260004F80508051005222535E5480550A564F61
:10427000589E41083F05750576E14C0F770A3DC20F
:104280004B09C960413834113B02A489960097302C
:10429000982099309A849B299C039D4C9E3F7804DA
:1042A0007901C8F0790FC8007910C87E790AC880F2
:1042B000790BC801790CC80F790DC8207909C8801D
:1042C0007902C8C07903C8407905C8307926090247
:1042D0003B42000000000000000000000000000061
:1042E0000000000000003F4000000000000000004F
:1042F0003000400030004000000009000BC03D00CD
:104300000BC03D00090018C024407FE022403180EE
:104310000000180024C01B000D8032400180038083
:104320001C4027401C800740004010006000000037
:104330000000000000000000000000001F8020407E
:1043400040200000402020401F80000000000900A5
:1043500006001F80060009000000040004003F80E2
:1043600004000400000000100060000000000000D5
:104370000000040004000400040004000000000029
:1043800000400000000000000000002001C0060006
:104390003800400000001F802040204020401F8047
:1043A0000000000010403FC000400000000018C0A6
:1043B000214022402440184000001080204024402A
:1043C00024401B80000002000D0011003FC001408E
:1043D00000003C80244024402440238000001F80B3
:1043E000244024403440038000003000200027C0D7
:1043F0003800200000001B802440244024401B8003
:1044000000001C0022C0224022401F80000000004B
:1044100000000840000000000000000000000460F0
:10442000000000000000000004000A0011002080CD
:1044300040400900090009000900090000000000CF
:104440004040208011000A00040018002000234092
:104450002400180000001F802040274029401F40F2
:104460000000004007C039000F0001C0004020409C
:104470003FC0244024401B8000001F80204020407B
:1044800020403080000020403FC0204020401F805E
:10449000000020403FC024402E4030C0000020409B
:1044A0003FC024402E00300000000F00108020404C
:1044B00022403380020020403FC0040004003FC07F
:1044C0002040204020403FC02040204000000060AD
:1044D000202020203FC02000200020403FC024405A
:1044E0000B0030C0204020403FC020400040004032
:1044F00000C03FC03C0003C03C003FC00000204063
:104500003FC00C4023003FC020001F8020402040BF
:1045100020401F80000020403FC02440240018009D
:1045200000001F802140214020E01FA0000020400B
:104530003FC02440260019C0004018C02440244039
:10454000224031800000300020403FC02040300039
:10455000000020003F80004000403F8020002000FD
:104560003E0001C0070038002000380007C03C00B2
:1045700007C038000000204039C0060039C0204084
:1045800000002000384007C03840200000003040C4
:1045900021C02640384020C00000000000007FE01D
:1045A000402040200000000070000C00038000400C
:1045B00000000000402040207FE0000000000000DC
:1045C000200040002000000000000010001000103B
:1045D000001000100010000000004000000000006B
:1045E0000000000002800540054003C0004020009C
:1045F0003FC00440044003800000000003800440EA
:1046000004400640000000000380044024403FC0F6
:10461000004000000380054005400340000000000A
:1046200004401FC0244024402000000002E0055048
:1046300005500650042020403FC00440040003C041
:1046400000400000044027C00040000000000010AF
:104650000010041027E00000000020403FC001408F
:10466000070004C00440204020403FC000400040FC
:10467000000007C0040007C0040003C0000004409D
:1046800007C00440040003C0004000000380044051
:10469000044003800000041007F00450044003802D
:1046A0000000000003800440045007F000100440A4
:1046B00007C002400400040000000000064005405E
:1046C000054004C00000000004001F8004400040BA
:1046D0000000040007800040044007C000400400C0
:1046E000070004C0018006000400060001C00700A6
:1046F00001C006000000044006C0010006C00440DE
:1047000000000410071004E001800600040000000F
:10471000044005C006400440000000000000040002
:104720007BE040200000000000000000FFF00000DF
:104730000000000040207BE004000000000040007A
:104740008000400020002000400000000000000029
:104750000000000000000000000000000000000059
:104760001FCC000C0000000000000000080030001A
:1047700060000800300060000000022003FC1E20E2
:10478000022003FC1E200220000000000E1811046D
:104790003FFF10840C78000000000F0010840F38D9
:1047A00000C0077818840078000000780F8410C4D7
:1047B00011240E9800E400840008080068007000CE
:1047C00000000000000000000000000000000000E9
:1047D00007E01818200440020000000040022004F6
:1047E000181807E0000000000000024002400180AD
:1047F0000FF0018002400240000000800080008035
:104800000FF800800080008000000001000D000E05
:104810000000000000000000000000000080008098
:10482000008000800080008000800000000C000CF0
:10483000000000000000000000000000000600185A
:1048400000600180060018002000000007F0080842
:1048500010041004080807F0000000000804080411
:104860001FFC000400040000000000000E0C1014E7
:104870001024104411840E0C000000000C181004C9
:104880001104110412880C700000000000E00320E5
:10489000042408241FFC0024000000001F9810843A
:1048A00011041104108810700000000007F008883F
:1048B0001104110418880070000000001C00100092
:1048C00010FC13001C001000000000000E38114402
:1048D0001084108411440E38000000000700088C7A
:1048E00010441044088807F0000000000000000099
:1048F000030C030C00000000000000000000000199
:1049000001060000000000000000000000800140DF
:1049100002200410080810040000022002200220D7
:1049200002200220022002200000000010040808DB
:104930000410022001400080000000000E00120060
:10494000100C106C10800F00000003E00C1813E432
:10495000142417C4082807D000000004003C03C436
:104960001C40074000E4001C000410041FFC11045C
:10497000110411040E880070000003E00C181004EC
:104980001004100410081C10000010041FFC100478
:1049900010041004080807F0000010041FFC1104A4
:1049A000110417C410040818000010041FFC11049F
:1049B000110017C010000800000003E00C181004DC
:1049C000100410441C780040000010041FFC1084E8
:1049D0000080008010841FFC1004000010041004EC
:1049E0001FFC10041004000000000003000110016F
:1049F00010011FFE10001000000010041FFC110425
:104A000003801464181C1004000010041FFC100420
:104A1000000400040004000C000010041FFC1F0030
:104A200000FC1F001FFC1004000010041FFC0C04FD
:104A3000030000E010181FFC100007F00808100425
:104A400010041004080807F0000010041FFC108474
:104A50001080108010800F00000007F0081810244C
:104A60001024101C080A07F2000010041FFC110497
:104A7000110011C011300E0C000400000E1C1104B6
:104A80001084108410441C3800001800100010041A
:104A90001FFC100410001800000010001FF8100484
:104AA0000004000410041FF8100010001E0011E0A4
:104AB000001C007013801C0010001FC0103C00E0A0
:104AC0001F0000E0103C1FC000001004180C16343A
:104AD00001C001C01634180C100410001C0013048F
:104AE00000FC13041C00100000000804101C1064DB
:104AF000108413041C0410180000000000000000C3
:104B00007FFE4002400240020000000030000C0026
:104B100003800060001C000300000000400240020F
:104B200040027FFE000000000000000000002000A6
:104B30004000400040002000000000010001000192
:104B400000010001000100010001000040004000E0
:104B50002000000000000000000000000098012478
:104B600001440144014400FC000410001FFC0088C3
:104B7000010401040088007000000000007000883B
:104B80000104010401040088000000000070008896
:104B90000104010411081FFC0004000000F8014496
:104BA00001440144014400C8000000000104010464
:104BB0000FFC1104110411001800000000D6012997
:104BC0000129012901C90106000010041FFC00840D
:104BD00001000100010400FC0004000001041904AC
:104BE00019FC0004000400000000000000030001A4
:104BF0000101190119FE0000000010041FFC00242F
:104C0000004001B4010C0104000000001004100475
:104C10001FFC0004000400000000010401FC01046A
:104C2000010001FC0104010000FC010401FC0084FE
:104C300001000100010400FC0004000000F8010470
:104C400001040104010400F80000010101FF0085D6
:104C5000010401040088007000000000007000885A
:104C600001040104010501FF00010104010401FC2C
:104C700000840104010001800000000000CC012438
:104C8000012401240124019800000000010001001A
:104C900007F80104010400000000010001F800040D
:104CA00000040004010801FC0004010001800170FF
:104CB000000C001001600180010001F0010C0030C7
:104CC00001C00030010C01F0010000000104018C62
:104CD00000740170018C0104000001010181017167
:104CE000000E001801600180010000000184010C29
:104CF000013401440184010C0000000000000000A8
:104D0000000001003EFC40024002000000000000E4
:104D10000000FFFF00000000000000004002400211
:104D20003EFC010000000000000000006000800068
:104D30008000400040002000200000000000000033
:104D40000000000000000000000000000000000063
:104D50000000000000000000000000000000000053
:104D6000000000000000000000000000000F80387C
:104D70000FFE380F80380000000000000000000027
:104D800000000000000000000100000600000C0010
:104D9000003800003100000600000C000038000060
:104DA0003000000000000000000061800067F8078C
:104DB000F98000618000618000618000618000678F
:104DC000F807F9800061800000000000000000008A
:104DD00001C0E003E0F00630080418081FFFFE04DD
:104DE0000E080787F00381E000000000000001F0DA
:104DF00000060C00040408060C7001F9C0000E0047
:104E0000003BE000EC18070808040C180003E00061
:104E100000000001E00007F003F818041C08041764
:104E20000807E1D003C0E00023B0003C08002008E0
:104E300000001000000000000001000031000032FE
:104E400000001C0000000000000000000000000046
:104E50000000000000000000000000000000000052
:104E6000000000000000000000007F0001FFC007FC
:104E700080F00C0018100004200002000000000068
:104E8000002000021000040C00180780F001FFC091
:104E9000007F000000000000000000000000000093
:104EA0000000000000004200006600006600003CB8
:104EB0000000180003FFC0001800003C000066005E
:104EC000006600004200000000000800000800002A
:104ED000080000080000080001FFC00008000008EA
:104EE00000000800000800000800000000000001A9
:104EF00000003100003200001C0000000000000033
:104F000000000000000000000000000000000000A1
:104F10000000080000080000080000080000080069
:104F20000008000008000008000008000008000059
:104F30000000000000000000000038000038000001
:104F40003800000000000000000000000000000029
:104F500000000000000000000000000600001C002F
:104F60000070000180000E0000380000C000070043
:104F7000001C0000300000000000000000007F80E6
:104F800001FFE00380700600180400080400080612
:104F9000001803807001FFE0007F80000000000027
:104FA0000000000001000801000801000803FFF8EC
:104FB00007FFF800000800000800000800000000DB
:104FC000000000000001C03802C05804009804012D
:104FD00018040218040418061C1803F81801E0F855
:104FE00000000000000000000001C0E003C0F00469
:104FF000000804080804080806180803F41801E764
:10500000F00001E0000000000000000000000300CC
:10501000000D000011000061000081080301080775
:10502000FFF80FFFF8000108000108000000000071
:10503000000000E007FCD00608080610080610086B
:10504000061008061838060FF00607C0000000001A
:105050000000000000003F8001FFE00384300208F0
:1050600018041008041008041008071810030FF0A3
:105070000007C000000000000000000003C000079F
:1050800000000600000600F80607F806180006E013
:105090000007000006000000000000000001E1E041
:1050A00003F7F0063410041808041808040C080468
:1050B0000C0806161803F3F001C1E0000000000020
:1050C0000000F80003FC300306380402080402085C
:1050D0000402080404100308F001FFC0007F000070
:1050E00000000000000000000000000000000000C0
:1050F00000007038007038007038000000000000B8
:10510000000000000000000000000000000000009F
:10511000000000000000301A00301C0000000000F9
:10512000000000000000000000000000000000007F
:1051300000080000140000220000410000808001EF
:1051400000400200200400100800080000000000D9
:1051500000002100002100002100002100002100AA
:10516000002100002100002100002100002100009A
:105170000000000000000000080008040010020009
:105180002001004000808000410000220000140047
:1051900000080000000000000003C00004C000047C
:1051A0000000080038080F380808380810000C30D4
:1051B0000007E00003C000000000000000003F8086
:1051C00000FFE0038070020F1006708804C088049E
:1051D0008308047F8802C09003012000FE40000085
:1051E000080000180001F8003E0801C20007020094
:1051F00007E20000FE00001FC80001F800003800B0
:10520000000804000807FFF807FFF804080804086E
:105210000804080804080806180803F41801E7F051
:105220000001E0000000000000003F8001FFE003FB
:10523000807002001804000804000804000804003C
:10524000100600200780C000000004000807FFF8D7
:1052500007FFF8040008040008040008040018020E
:10526000001003807001FFE0007F80000000040058
:105270000807FFF807FFF8040808040808040808EE
:10528000040808043E080400080600180100600035
:10529000000004000807FFF807FFF80408080408E6
:1052A00000040800040800043E0006000006000098
:1052B000018000000000000000003F8001FFE003CB
:1052C00080700600180400080402080402080203A3
:1052D000F00783F000020000020004000807FFF856
:1052E00007FFF80408080008000008000008000094
:1052F000080004080807FFF807FFF804000800008A
:105300000000000004000804000804000807FFF87B
:1053100007FFF8040008040008040008000000006B
:10532000000000000000000600000700000104006B
:105330000104000104000307FFFE07FFFC04000056
:1053400004000004000004000807FFF807FFF80449
:105350000C08001800003E0004C7800503C80600C2
:10536000F804003804001800000804000807FFF8DB
:1053700007FFF8040008000008000008000008000B
:105380000008000008000018000060000000040091
:105390000807FFF807800807FC00007FC00003F83B
:1053A0000007C000780007800807FFF807FFF8042F
:1053B000000804000807FFF807000803C00000E029
:1053C00000003800001E000007000001C00400F0CB
:1053D00007FFF8040000000000007F8001FFE003E9
:1053E0008070060018040008040008060018030076
:1053F0003001FFE0007F8000000004000807FFF894
:1054000007FFF80404080404000404000404000472
:105410000400060C0003F80001F00000000000008A
:1054200000007F8001FFE003807006008804008890
:105430000400C806003C03003E01FFE6007F840034
:10544000000004000807FFF807FFF8040808040834
:1054500000040C00040F00040BC00610F003F03829
:1054600001E00800000800000001E0F803F0300649
:105470003010041808041808040C08040C0802066C
:10548000180207F00781E00000000180000600001C
:1054900004000004000004000807FFF807FFF804F8
:1054A0000008040000040000060000018000040061
:1054B0000007FFE007FFF0040018000008000008E4
:1054C00000000800000800000804001007FFE004C6
:1054D000000004000006000007E00007FE00041FB3
:1054E000E00001F80000380001E0043E0007C000C1
:1054F00006000004000004000007E00007FFC004ED
:105500001FF80007C007F80007FF80043FF80007F6
:10551000C004F800070000040000000000040008B8
:1055200006001807C07805F1C8003E00001F80047F
:1055300063E80780F8060018040008000000040073
:105540000006000007800007E008047C08001FF840
:105550000007F800180804E008070000060000042F
:1055600000000000000100080600380400F80403F1
:10557000E8040F08047C0805F00807C008070018B5
:1055800004006000000000000000000000000000B7
:1055900000000000003FFFFE20000220000220006B
:1055A00002200002200002000000000000000000B5
:1055B00008000007000000C00000380000060000DE
:1055C00001C000003000000E0000010000000000DB
:1055D0000000000020000220000220000220000243
:1055E0002000023FFFFE000000000000000000005D
:1055F0000000000000000000000000080000100093
:105600000030000020000030000010000008000002
:105610000000000000000000010000010000010087
:105620000001000001000001000001000001000075
:105630000100000100000100000100000000000066
:1056400000000020000020000010000010000000FA
:10565000000000000000000000000000000000004A
:10566000000000F00019F8001B18002208002608AE
:10567000002408002410003FF8001FF80000080074
:10568000001800000004000007FFF80FFFF00018EA
:1056900018001008002008002008003018001FF033
:1056A000000FC00000000000000007C0001FF00055
:1056B0001830002008002008002008003C08001CCA
:1056C000100000600000000000000000000007C0A3
:1056D000001FF000381800200800200800200804EF
:1056E000101007FFF80FFFF000001000000000008E
:1056F000000000000007C0001FF000123000221858
:10570000002208002208003208001E10000E2000AF
:10571000000000000000200000200800200801FF19
:10572000F803FFF8062008042008042008072000DA
:1057300003000000000000000000000E000E6E00DC
:105740001FF30031B10020B10020B1003191001FE2
:1057500013002E1E00200E00300000000004000880
:1057600007FFF80FFFF800100800200000200000DD
:105770002008003FF8001FF80000080000000000AB
:1057800000000000002008002008002008063FF864
:10579000063FF800000800000800000800000000B4
:1057A00000000000000000000000030000030020D3
:1057B00001002001002003063FFE063FFC00000020
:1057C00000000000000000000004000807FFF80FC0
:1057D000FFF8000188000300002FC00038F8002007
:1057E0003800200800000800000000000000000051
:1057F00004000804000804000807FFF80FFFF80081
:105800000008000008000008000000000000002060
:1058100008003FF8003FF8001008002000003FF8A3
:10582000003FF8001008002000003FF8003FF8009B
:105830000008000000002008003FF8003FF80010BA
:1058400008001000002000002008003FF8001FF8AA
:105850000000080000000000000007C0000FF0007A
:105860001830003008002008002008003008001818
:1058700030000FF00007C000000000000000200111
:10588000003FFF003FFF001011002009002008002A
:105890002008003038001FF0000FC000000000009A
:1058A000000007C0001FF000381800200800200882
:1058B000002009001011001FFF003FFF0000010041
:1058C0000000002008002008002008003FF8003FEA
:1058D000F800080800100800200800200000300030
:1058E000003000000000000000000000000C780004
:1058F0001E18003308002308002108002188002119
:10590000980030F000386000000000000000200027
:1059100000200000200000FFF003FFF80020080036
:1059200020080020080000300000000000000000F7
:1059300000002000003FF0007FF800001800000881
:10594000000008002010003FF8007FF00000100069
:105950000000000000002000003000003C00003F7C
:10596000800023F0000078000070002380003C00DD
:10597000003000002000002000003C00003FE0005C
:1059800023F80000E0002700003E00003FE0002177
:10599000F80001E0003E00002000000000002008A8
:1059A000002008003838003E680027800003C80047
:1059B0002CF80038380020180020080000000000F3
:1059C00000002000003003003C01003F830023EC76
:1059D000000070002380003C000020000020000038
:1059E00000000000000000000038080020380020FF
:1059F000F80023E8002F88003E080038080020182F
:105A00000000700000000000000000000000000026
:105A100000000000000008000014001FF7FC300028
:105A2000062000020000000000000000000000004E
:105A3000000000000000000000000000FFFFFF0069
:105A40000000000000000000000000000000000056
:105A5000000000002000023000061FF7FC001400C8
:105A6000000800000000000000000000000000002E
:105A7000000000000018000060000040000040002E
:105A800000200000100000080000040000040000D6
:105A90000C00001000000000B85A000800000020B0
:105AA00030000000C4010008E85A0008300000205F
:105AB00070060000E0010008000000000000000087
:105AC000FFFF0000000001020304010203040607B7
:105AD00008090000007A030A00000000000000002E
